{
  "_format": "hh-sol-artifact-1",
  "contractName": "Escrow",
  "sourceName": "contracts/Escrow.sol",
  "abi": [
    {
      "inputs": [
        {
          "internalType": "address payable",
          "name": "_sender_address",
          "type": "address"
        },
        {
          "internalType": "address payable",
          "name": "_receiver_address",
          "type": "address"
        },
        {
          "internalType": "uint32",
          "name": "_price",
          "type": "uint32"
        },
        {
          "internalType": "uint256",
          "name": "_lockTime",
          "type": "uint256"
        }
      ],
      "stateMutability": "nonpayable",
      "type": "constructor"
    },
    {
      "anonymous": false,
      "inputs": [
        {
          "indexed": false,
          "internalType": "uint256",
          "name": "when",
          "type": "uint256"
        },
        {
          "indexed": false,
          "internalType": "uint256",
          "name": "till",
          "type": "uint256"
        }
      ],
      "name": "Constrcuted",
      "type": "event"
    },
    {
      "anonymous": false,
      "inputs": [
        {
          "indexed": true,
          "internalType": "bytes32",
          "name": "role",
          "type": "bytes32"
        },
        {
          "indexed": true,
          "internalType": "bytes32",
          "name": "previousAdminRole",
          "type": "bytes32"
        },
        {
          "indexed": true,
          "internalType": "bytes32",
          "name": "newAdminRole",
          "type": "bytes32"
        }
      ],
      "name": "RoleAdminChanged",
      "type": "event"
    },
    {
      "anonymous": false,
      "inputs": [
        {
          "indexed": true,
          "internalType": "bytes32",
          "name": "role",
          "type": "bytes32"
        },
        {
          "indexed": true,
          "internalType": "address",
          "name": "account",
          "type": "address"
        },
        {
          "indexed": true,
          "internalType": "address",
          "name": "sender",
          "type": "address"
        }
      ],
      "name": "RoleGranted",
      "type": "event"
    },
    {
      "anonymous": false,
      "inputs": [
        {
          "indexed": true,
          "internalType": "bytes32",
          "name": "role",
          "type": "bytes32"
        },
        {
          "indexed": true,
          "internalType": "address",
          "name": "account",
          "type": "address"
        },
        {
          "indexed": true,
          "internalType": "address",
          "name": "sender",
          "type": "address"
        }
      ],
      "name": "RoleRevoked",
      "type": "event"
    },
    {
      "inputs": [],
      "name": "AGENT_ROLE",
      "outputs": [
        {
          "internalType": "bytes32",
          "name": "",
          "type": "bytes32"
        }
      ],
      "stateMutability": "view",
      "type": "function"
    },
    {
      "inputs": [],
      "name": "AgentTransfer",
      "outputs": [],
      "stateMutability": "nonpayable",
      "type": "function"
    },
    {
      "inputs": [],
      "name": "ClaimPayment",
      "outputs": [],
      "stateMutability": "nonpayable",
      "type": "function"
    },
    {
      "inputs": [],
      "name": "ConfirmDeliver",
      "outputs": [],
      "stateMutability": "payable",
      "type": "function"
    },
    {
      "inputs": [],
      "name": "DEFAULT_ADMIN_ROLE",
      "outputs": [
        {
          "internalType": "bytes32",
          "name": "",
          "type": "bytes32"
        }
      ],
      "stateMutability": "view",
      "type": "function"
    },
    {
      "inputs": [],
      "name": "DenyDeliver",
      "outputs": [],
      "stateMutability": "nonpayable",
      "type": "function"
    },
    {
      "inputs": [],
      "name": "RECEIVER_ROLE",
      "outputs": [
        {
          "internalType": "bytes32",
          "name": "",
          "type": "bytes32"
        }
      ],
      "stateMutability": "view",
      "type": "function"
    },
    {
      "inputs": [],
      "name": "SENDER_ROLE",
      "outputs": [
        {
          "internalType": "bytes32",
          "name": "",
          "type": "bytes32"
        }
      ],
      "stateMutability": "view",
      "type": "function"
    },
    {
      "inputs": [],
      "name": "SendPayment",
      "outputs": [],
      "stateMutability": "payable",
      "type": "function"
    },
    {
      "inputs": [],
      "name": "agent",
      "outputs": [
        {
          "internalType": "address payable",
          "name": "",
          "type": "address"
        }
      ],
      "stateMutability": "view",
      "type": "function"
    },
    {
      "inputs": [],
      "name": "balance",
      "outputs": [
        {
          "internalType": "uint256",
          "name": "",
          "type": "uint256"
        }
      ],
      "stateMutability": "view",
      "type": "function"
    },
    {
      "inputs": [],
      "name": "fee",
      "outputs": [
        {
          "internalType": "uint256",
          "name": "",
          "type": "uint256"
        }
      ],
      "stateMutability": "view",
      "type": "function"
    },
    {
      "inputs": [
        {
          "internalType": "bytes32",
          "name": "role",
          "type": "bytes32"
        }
      ],
      "name": "getRoleAdmin",
      "outputs": [
        {
          "internalType": "bytes32",
          "name": "",
          "type": "bytes32"
        }
      ],
      "stateMutability": "view",
      "type": "function"
    },
    {
      "inputs": [
        {
          "internalType": "bytes32",
          "name": "role",
          "type": "bytes32"
        },
        {
          "internalType": "address",
          "name": "account",
          "type": "address"
        }
      ],
      "name": "grantRole",
      "outputs": [],
      "stateMutability": "nonpayable",
      "type": "function"
    },
    {
      "inputs": [
        {
          "internalType": "bytes32",
          "name": "role",
          "type": "bytes32"
        },
        {
          "internalType": "address",
          "name": "account",
          "type": "address"
        }
      ],
      "name": "hasRole",
      "outputs": [
        {
          "internalType": "bool",
          "name": "",
          "type": "bool"
        }
      ],
      "stateMutability": "view",
      "type": "function"
    },
    {
      "inputs": [],
      "name": "lockTime",
      "outputs": [
        {
          "internalType": "uint256",
          "name": "",
          "type": "uint256"
        }
      ],
      "stateMutability": "view",
      "type": "function"
    },
    {
      "inputs": [],
      "name": "price",
      "outputs": [
        {
          "internalType": "uint256",
          "name": "",
          "type": "uint256"
        }
      ],
      "stateMutability": "view",
      "type": "function"
    },
    {
      "inputs": [],
      "name": "receiver",
      "outputs": [
        {
          "internalType": "address payable",
          "name": "",
          "type": "address"
        }
      ],
      "stateMutability": "view",
      "type": "function"
    },
    {
      "inputs": [
        {
          "internalType": "bytes32",
          "name": "role",
          "type": "bytes32"
        },
        {
          "internalType": "address",
          "name": "account",
          "type": "address"
        }
      ],
      "name": "renounceRole",
      "outputs": [],
      "stateMutability": "nonpayable",
      "type": "function"
    },
    {
      "inputs": [
        {
          "internalType": "bytes32",
          "name": "role",
          "type": "bytes32"
        },
        {
          "internalType": "address",
          "name": "account",
          "type": "address"
        }
      ],
      "name": "revokeRole",
      "outputs": [],
      "stateMutability": "nonpayable",
      "type": "function"
    },
    {
      "inputs": [],
      "name": "sender",
      "outputs": [
        {
          "internalType": "address payable",
          "name": "",
          "type": "address"
        }
      ],
      "stateMutability": "view",
      "type": "function"
    },
    {
      "inputs": [],
      "name": "start",
      "outputs": [
        {
          "internalType": "uint256",
          "name": "",
          "type": "uint256"
        }
      ],
      "stateMutability": "view",
      "type": "function"
    },
    {
      "inputs": [],
      "name": "status",
      "outputs": [
        {
          "internalType": "enum Escrow.Status",
          "name": "",
          "type": "uint8"
        }
      ],
      "stateMutability": "view",
      "type": "function"
    },
    {
      "inputs": [
        {
          "internalType": "bytes4",
          "name": "interfaceId",
          "type": "bytes4"
        }
      ],
      "name": "supportsInterface",
      "outputs": [
        {
          "internalType": "bool",
          "name": "",
          "type": "bool"
        }
      ],
      "stateMutability": "view",
      "type": "function"
    },
    {
      "inputs": [],
      "name": "vault",
      "outputs": [
        {
          "internalType": "address",
          "name": "",
          "type": "address"
        }
      ],
      "stateMutability": "view",
      "type": "function"
    },
    {
      "stateMutability": "payable",
      "type": "receive"
    }
  ],
  "bytecode": "0x60806040523480156200001157600080fd5b5060405162002a2a38038062002a2a8339818101604052810190620000379190620004b9565b6000600760006101000a81548160ff0219169083600481111562000084577f4e487b7100000000000000000000000000000000000000000000000000000000600052602160045260246000fd5b021790555030600160006101000a81548173ffffffffffffffffffffffffffffffffffffffff021916908373ffffffffffffffffffffffffffffffffffffffff16021790555033600260006101000a81548173ffffffffffffffffffffffffffffffffffffffff021916908373ffffffffffffffffffffffffffffffffffffffff16021790555083600360006101000a81548173ffffffffffffffffffffffffffffffffffffffff021916908373ffffffffffffffffffffffffffffffffffffffff1602179055508060088190555082600460006101000a81548173ffffffffffffffffffffffffffffffffffffffff021916908373ffffffffffffffffffffffffffffffffffffffff1602179055508163ffffffff16600581905550600160068190555042600a8190555060006009819055506200020c7fcab5a0bfe0b79d2c4b1c2e02599fa044d115b7511f9659307cb4276950967709600260009054906101000a900473ffffffffffffffffffffffffffffffffffffffff16620002fb60201b60201c565b620002607f76d12de99ad2ca162840505be9b657c2e7a650cc3ee0284048f3f9def3c1adf2600360009054906101000a900473ffffffffffffffffffffffffffffffffffffffff16620002fb60201b60201c565b620002b47f7a97506be97703960d71e3a118f1850a50b01da6957110e8293eacb08d8c6060600460009054906101000a900473ffffffffffffffffffffffffffffffffffffffff16620002fb60201b60201c565b7f96a1e8322aa29a97b79ed92d729bd7422c8cba6ee78fca557d4fd652718c2ec542600854604051620002e992919062000536565b60405180910390a150505050620005ff565b6200030d82826200031160201b60201c565b5050565b6200032382826200040260201b60201c565b620003fe57600160008084815260200190815260200160002060000160008373ffffffffffffffffffffffffffffffffffffffff1673ffffffffffffffffffffffffffffffffffffffff16815260200190815260200160002060006101000a81548160ff021916908315150217905550620003a36200046c60201b60201c565b73ffffffffffffffffffffffffffffffffffffffff168173ffffffffffffffffffffffffffffffffffffffff16837f2f8788117e7eff1d82e926ec794901d17c78024a50270940304540a733656f0d60405160405180910390a45b5050565b600080600084815260200190815260200160002060000160008373ffffffffffffffffffffffffffffffffffffffff1673ffffffffffffffffffffffffffffffffffffffff16815260200190815260200160002060009054906101000a900460ff16905092915050565b600033905090565b6000815190506200048581620005b1565b92915050565b6000815190506200049c81620005cb565b92915050565b600081519050620004b381620005e5565b92915050565b60008060008060808587031215620004d057600080fd5b6000620004e08782880162000474565b9450506020620004f38782880162000474565b93505060406200050687828801620004a2565b925050606062000519878288016200048b565b91505092959194509250565b620005308162000597565b82525050565b60006040820190506200054d600083018562000525565b6200055c602083018462000525565b9392505050565b6000620005708262000577565b9050919050565b600073ffffffffffffffffffffffffffffffffffffffff82169050919050565b6000819050919050565b600063ffffffff82169050919050565b620005bc8162000563565b8114620005c857600080fd5b50565b620005d68162000597565b8114620005e257600080fd5b50565b620005f081620005a1565b8114620005fc57600080fd5b50565b61241b806200060f6000396000f3fe60806040526004361061016a5760003560e01c8063a217fddf116100d1578063daa2fd201161008a578063f118682b11610064578063f118682b146104d0578063f5ff5c76146104da578063f7260d3e14610505578063fbfa77cf1461053057610171565b8063daa2fd2014610484578063ddca3f431461048e578063e35ffcab146104b957610171565b8063a217fddf14610398578063b6103937146103c3578063b69ef8a8146103da578063be9a655514610405578063c42ef38c14610430578063d547741f1461045b57610171565b80632f2ff15d116101235780632f2ff15d1461028857806336568abe146102b157806367e404ce146102da57806391d14854146103055780639e17403b14610342578063a035b1fe1461036d57610171565b806301ffc9a7146101765780630d668087146101b35780630e27ad84146101de578063200d2ed2146101f557806322459e1814610220578063248a9ca31461024b57610171565b3661017157005b600080fd5b34801561018257600080fd5b5061019d600480360381019061019891906118c9565b61055b565b6040516101aa9190611bca565b60405180910390f35b3480156101bf57600080fd5b506101c86105d5565b6040516101d59190611d7d565b60405180910390f35b3480156101ea57600080fd5b506101f36105db565b005b34801561020157600080fd5b5061020a610774565b6040516102179190611c00565b60405180910390f35b34801561022c57600080fd5b50610235610787565b6040516102429190611be5565b60405180910390f35b34801561025757600080fd5b50610272600480360381019061026d9190611864565b6107ab565b60405161027f9190611be5565b60405180910390f35b34801561029457600080fd5b506102af60048036038101906102aa919061188d565b6107ca565b005b3480156102bd57600080fd5b506102d860048036038101906102d3919061188d565b6107f3565b005b3480156102e657600080fd5b506102ef610876565b6040516102fc9190611baf565b60405180910390f35b34801561031157600080fd5b5061032c6004803603810190610327919061188d565b61089c565b6040516103399190611bca565b60405180910390f35b34801561034e57600080fd5b50610357610906565b6040516103649190611be5565b60405180910390f35b34801561037957600080fd5b5061038261092a565b60405161038f9190611d7d565b60405180910390f35b3480156103a457600080fd5b506103ad610930565b6040516103ba9190611be5565b60405180910390f35b3480156103cf57600080fd5b506103d8610937565b005b3480156103e657600080fd5b506103ef610bd6565b6040516103fc9190611d7d565b60405180910390f35b34801561041157600080fd5b5061041a610bdc565b6040516104279190611d7d565b60405180910390f35b34801561043c57600080fd5b50610445610be2565b6040516104529190611be5565b60405180910390f35b34801561046757600080fd5b50610482600480360381019061047d919061188d565b610c06565b005b61048c610c2f565b005b34801561049a57600080fd5b506104a3610f02565b6040516104b09190611d7d565b60405180910390f35b3480156104c557600080fd5b506104ce610f08565b005b6104d86110a1565b005b3480156104e657600080fd5b506104ef6111e9565b6040516104fc9190611baf565b60405180910390f35b34801561051157600080fd5b5061051a61120f565b6040516105279190611baf565b60405180910390f35b34801561053c57600080fd5b50610545611235565b6040516105529190611b94565b60405180910390f35b60007f7965db0b000000000000000000000000000000000000000000000000000000007bffffffffffffffffffffffffffffffffffffffffffffffffffffffff1916827bffffffffffffffffffffffffffffffffffffffffffffffffffffffff191614806105ce57506105cd8261125b565b5b9050919050565b60085481565b7f76d12de99ad2ca162840505be9b657c2e7a650cc3ee0284048f3f9def3c1adf261060d816106086112c5565b6112cd565b60026004811115610647577f4e487b7100000000000000000000000000000000000000000000000000000000600052602160045260246000fd5b600760009054906101000a900460ff16600481111561068f577f4e487b7100000000000000000000000000000000000000000000000000000000600052602160045260246000fd5b146106cf576040517f08c379a00000000000000000000000000000000000000000000000000000000081526004016106c690611d3d565b60405180910390fd5b600854600a546106df9190611dbf565b4211610720576040517f08c379a000000000000000000000000000000000000000000000000000000000815260040161071790611cfd565b60405180910390fd5b6003600760006101000a81548160ff0219169083600481111561076c577f4e487b7100000000000000000000000000000000000000000000000000000000600052602160045260246000fd5b021790555050565b600760009054906101000a900460ff1681565b7fcab5a0bfe0b79d2c4b1c2e02599fa044d115b7511f9659307cb427695096770981565b6000806000838152602001908152602001600020600101549050919050565b6107d3826107ab565b6107e4816107df6112c5565b6112cd565b6107ee838361136a565b505050565b6107fb6112c5565b73ffffffffffffffffffffffffffffffffffffffff168173ffffffffffffffffffffffffffffffffffffffff1614610868576040517f08c379a000000000000000000000000000000000000000000000000000000000815260040161085f90611d5d565b60405180910390fd5b610872828261144a565b5050565b600360009054906101000a900473ffffffffffffffffffffffffffffffffffffffff1681565b600080600084815260200190815260200160002060000160008373ffffffffffffffffffffffffffffffffffffffff1673ffffffffffffffffffffffffffffffffffffffff16815260200190815260200160002060009054906101000a900460ff16905092915050565b7f7a97506be97703960d71e3a118f1850a50b01da6957110e8293eacb08d8c606081565b60055481565b6000801b81565b7fcab5a0bfe0b79d2c4b1c2e02599fa044d115b7511f9659307cb4276950967709610969816109646112c5565b6112cd565b6004808111156109a2577f4e487b7100000000000000000000000000000000000000000000000000000000600052602160045260246000fd5b600760009054906101000a900460ff1660048111156109ea577f4e487b7100000000000000000000000000000000000000000000000000000000600052602160045260246000fd5b1415610a9f57600460009054906101000a900473ffffffffffffffffffffffffffffffffffffffff1673ffffffffffffffffffffffffffffffffffffffff166108fc600160009054906101000a900473ffffffffffffffffffffffffffffffffffffffff1673ffffffffffffffffffffffffffffffffffffffff16319081150290604051600060405180830381858888f19350505050158015610a91573d6000803e3d6000fd5b506000600981905550610bd3565b60036004811115610ad9577f4e487b7100000000000000000000000000000000000000000000000000000000600052602160045260246000fd5b600760009054906101000a900460ff166004811115610b21577f4e487b7100000000000000000000000000000000000000000000000000000000600052602160045260246000fd5b1415610bd257600360009054906101000a900473ffffffffffffffffffffffffffffffffffffffff1673ffffffffffffffffffffffffffffffffffffffff166108fc600160009054906101000a900473ffffffffffffffffffffffffffffffffffffffff1673ffffffffffffffffffffffffffffffffffffffff16319081150290604051600060405180830381858888f19350505050158015610bc8573d6000803e3d6000fd5b5060006009819055505b5b50565b60095481565b600a5481565b7f76d12de99ad2ca162840505be9b657c2e7a650cc3ee0284048f3f9def3c1adf281565b610c0f826107ab565b610c2081610c1b6112c5565b6112cd565b610c2a838361144a565b505050565b7f76d12de99ad2ca162840505be9b657c2e7a650cc3ee0284048f3f9def3c1adf2610c6181610c5c6112c5565b6112cd565b6006543411610ca5576040517f08c379a0000000000000000000000000000000000000000000000000000000008152600401610c9c90611cbd565b60405180910390fd5b600554341015610cea576040517f08c379a0000000000000000000000000000000000000000000000000000000008152600401610ce190611c9d565b60405180910390fd5b60006004811115610d24577f4e487b7100000000000000000000000000000000000000000000000000000000600052602160045260246000fd5b600760009054906101000a900460ff166004811115610d6c577f4e487b7100000000000000000000000000000000000000000000000000000000600052602160045260246000fd5b14610dac576040517f08c379a0000000000000000000000000000000000000000000000000000000008152600401610da390611c7d565b60405180910390fd5b600260009054906101000a900473ffffffffffffffffffffffffffffffffffffffff1673ffffffffffffffffffffffffffffffffffffffff166108fc6006549081150290604051600060405180830381858888f19350505050158015610e16573d6000803e3d6000fd5b506000600654600554610e299190611e6f565b9050600160009054906101000a900473ffffffffffffffffffffffffffffffffffffffff1673ffffffffffffffffffffffffffffffffffffffff166108fc829081150290604051600060405180830381858888f19350505050158015610e93573d6000803e3d6000fd5b503460096000828254610ea69190611dbf565b925050819055506001600760006101000a81548160ff02191690836004811115610ef9577f4e487b7100000000000000000000000000000000000000000000000000000000600052602160045260246000fd5b02179055505050565b60065481565b7f7a97506be97703960d71e3a118f1850a50b01da6957110e8293eacb08d8c6060610f3a81610f356112c5565b6112cd565b600854600a54610f4a9190611dbf565b4210610f8b576040517f08c379a0000000000000000000000000000000000000000000000000000000008152600401610f8290611cdd565b60405180910390fd5b60016004811115610fc5577f4e487b7100000000000000000000000000000000000000000000000000000000600052602160045260246000fd5b600760009054906101000a900460ff16600481111561100d577f4e487b7100000000000000000000000000000000000000000000000000000000600052602160045260246000fd5b1461104d576040517f08c379a000000000000000000000000000000000000000000000000000000000815260040161104490611d1d565b60405180910390fd5b6002600760006101000a81548160ff02191690836004811115611099577f4e487b7100000000000000000000000000000000000000000000000000000000600052602160045260246000fd5b021790555050565b7f76d12de99ad2ca162840505be9b657c2e7a650cc3ee0284048f3f9def3c1adf26110d3816110ce6112c5565b6112cd565b6002600481111561110d577f4e487b7100000000000000000000000000000000000000000000000000000000600052602160045260246000fd5b600760009054906101000a900460ff166004811115611155577f4e487b7100000000000000000000000000000000000000000000000000000000600052602160045260246000fd5b14611195576040517f08c379a000000000000000000000000000000000000000000000000000000000815260040161118c90611c5d565b60405180910390fd5b6004600760006101000a81548160ff021916908360048111156111e1577f4e487b7100000000000000000000000000000000000000000000000000000000600052602160045260246000fd5b021790555050565b600260009054906101000a900473ffffffffffffffffffffffffffffffffffffffff1681565b600460009054906101000a900473ffffffffffffffffffffffffffffffffffffffff1681565b600160009054906101000a900473ffffffffffffffffffffffffffffffffffffffff1681565b60007f01ffc9a7000000000000000000000000000000000000000000000000000000007bffffffffffffffffffffffffffffffffffffffffffffffffffffffff1916827bffffffffffffffffffffffffffffffffffffffffffffffffffffffff1916149050919050565b600033905090565b6112d7828261089c565b611366576112fc8173ffffffffffffffffffffffffffffffffffffffff16601461152b565b61130a8360001c602061152b565b60405160200161131b929190611b5a565b6040516020818303038152906040526040517f08c379a000000000000000000000000000000000000000000000000000000000815260040161135d9190611c1b565b60405180910390fd5b5050565b611374828261089c565b61144657600160008084815260200190815260200160002060000160008373ffffffffffffffffffffffffffffffffffffffff1673ffffffffffffffffffffffffffffffffffffffff16815260200190815260200160002060006101000a81548160ff0219169083151502179055506113eb6112c5565b73ffffffffffffffffffffffffffffffffffffffff168173ffffffffffffffffffffffffffffffffffffffff16837f2f8788117e7eff1d82e926ec794901d17c78024a50270940304540a733656f0d60405160405180910390a45b5050565b611454828261089c565b1561152757600080600084815260200190815260200160002060000160008373ffffffffffffffffffffffffffffffffffffffff1673ffffffffffffffffffffffffffffffffffffffff16815260200190815260200160002060006101000a81548160ff0219169083151502179055506114cc6112c5565b73ffffffffffffffffffffffffffffffffffffffff168173ffffffffffffffffffffffffffffffffffffffff16837ff6391f5c32d9c69d2a47ea670b442974b53935d1edc7fd64eb21e047a839171b60405160405180910390a45b5050565b60606000600283600261153e9190611e15565b6115489190611dbf565b67ffffffffffffffff811115611587577f4e487b7100000000000000000000000000000000000000000000000000000000600052604160045260246000fd5b6040519080825280601f01601f1916602001820160405280156115b95781602001600182028036833780820191505090505b5090507f300000000000000000000000000000000000000000000000000000000000000081600081518110611617577f4e487b7100000000000000000000000000000000000000000000000000000000600052603260045260246000fd5b60200101907effffffffffffffffffffffffffffffffffffffffffffffffffffffffffffff1916908160001a9053507f7800000000000000000000000000000000000000000000000000000000000000816001815181106116a1577f4e487b7100000000000000000000000000000000000000000000000000000000600052603260045260246000fd5b60200101907effffffffffffffffffffffffffffffffffffffffffffffffffffffffffffff1916908160001a905350600060018460026116e19190611e15565b6116eb9190611dbf565b90505b60018111156117d7577f3031323334353637383961626364656600000000000000000000000000000000600f861660108110611753577f4e487b7100000000000000000000000000000000000000000000000000000000600052603260045260246000fd5b1a60f81b828281518110611790577f4e487b7100000000000000000000000000000000000000000000000000000000600052603260045260246000fd5b60200101907effffffffffffffffffffffffffffffffffffffffffffffffffffffffffffff1916908160001a905350600485901c9450806117d090611f8b565b90506116ee565b506000841461181b576040517f08c379a000000000000000000000000000000000000000000000000000000000815260040161181290611c3d565b60405180910390fd5b8091505092915050565b600081359050611834816123a0565b92915050565b600081359050611849816123b7565b92915050565b60008135905061185e816123ce565b92915050565b60006020828403121561187657600080fd5b60006118848482850161183a565b91505092915050565b600080604083850312156118a057600080fd5b60006118ae8582860161183a565b92505060206118bf85828601611825565b9150509250929050565b6000602082840312156118db57600080fd5b60006118e98482850161184f565b91505092915050565b6118fb81611eb5565b82525050565b61190a81611ea3565b82525050565b61191981611ec7565b82525050565b61192881611ed3565b82525050565b61193781611f46565b82525050565b600061194882611d98565b6119528185611da3565b9350611962818560208601611f58565b61196b81612013565b840191505092915050565b600061198182611d98565b61198b8185611db4565b935061199b818560208601611f58565b80840191505092915050565b60006119b4602083611da3565b91506119bf82612024565b602082019050919050565b60006119d7603e83611da3565b91506119e28261204d565b604082019050919050565b60006119fa603283611da3565b9150611a058261209c565b604082019050919050565b6000611a1d604a83611da3565b9150611a28826120eb565b606082019050919050565b6000611a40602c83611da3565b9150611a4b82612160565b604082019050919050565b6000611a63603483611da3565b9150611a6e826121af565b604082019050919050565b6000611a86603383611da3565b9150611a91826121fe565b604082019050919050565b6000611aa9601783611db4565b9150611ab48261224d565b601782019050919050565b6000611acc602883611da3565b9150611ad782612276565b604082019050919050565b6000611aef603b83611da3565b9150611afa826122c5565b604082019050919050565b6000611b12601183611db4565b9150611b1d82612314565b601182019050919050565b6000611b35602f83611da3565b9150611b408261233d565b604082019050919050565b611b5481611f3c565b82525050565b6000611b6582611a9c565b9150611b718285611976565b9150611b7c82611b05565b9150611b888284611976565b91508190509392505050565b6000602082019050611ba96000830184611901565b92915050565b6000602082019050611bc460008301846118f2565b92915050565b6000602082019050611bdf6000830184611910565b92915050565b6000602082019050611bfa600083018461191f565b92915050565b6000602082019050611c15600083018461192e565b92915050565b60006020820190508181036000830152611c35818461193d565b905092915050565b60006020820190508181036000830152611c56816119a7565b9050919050565b60006020820190508181036000830152611c76816119ca565b9050919050565b60006020820190508181036000830152611c96816119ed565b9050919050565b60006020820190508181036000830152611cb681611a10565b9050919050565b60006020820190508181036000830152611cd681611a33565b9050919050565b60006020820190508181036000830152611cf681611a56565b9050919050565b60006020820190508181036000830152611d1681611a79565b9050919050565b60006020820190508181036000830152611d3681611abf565b9050919050565b60006020820190508181036000830152611d5681611ae2565b9050919050565b60006020820190508181036000830152611d7681611b28565b9050919050565b6000602082019050611d926000830184611b4b565b92915050565b600081519050919050565b600082825260208201905092915050565b600081905092915050565b6000611dca82611f3c565b9150611dd583611f3c565b9250827fffffffffffffffffffffffffffffffffffffffffffffffffffffffffffffffff03821115611e0a57611e09611fb5565b5b828201905092915050565b6000611e2082611f3c565b9150611e2b83611f3c565b9250817fffffffffffffffffffffffffffffffffffffffffffffffffffffffffffffffff0483118215151615611e6457611e63611fb5565b5b828202905092915050565b6000611e7a82611f3c565b9150611e8583611f3c565b925082821015611e9857611e97611fb5565b5b828203905092915050565b6000611eae82611f1c565b9050919050565b6000611ec082611f1c565b9050919050565b60008115159050919050565b6000819050919050565b60007fffffffff0000000000000000000000000000000000000000000000000000000082169050919050565b6000819050611f178261238c565b919050565b600073ffffffffffffffffffffffffffffffffffffffff82169050919050565b6000819050919050565b6000611f5182611f09565b9050919050565b60005b83811015611f76578082015181840152602081019050611f5b565b83811115611f85576000848401525b50505050565b6000611f9682611f3c565b91506000821415611faa57611fa9611fb5565b5b600182039050919050565b7f4e487b7100000000000000000000000000000000000000000000000000000000600052601160045260246000fd5b7f4e487b7100000000000000000000000000000000000000000000000000000000600052602160045260246000fd5b6000601f19601f8301169050919050565b7f537472696e67733a20686578206c656e67746820696e73756666696369656e74600082015250565b7f43616e206f6e6c7920636f6e6669726d2064656c69766572792061667465722060008201527f73656c6c65722068617320636c61696d656420666f72207061796d656e740000602082015250565b7f546869732073686f756c6420626520746865206669727374207374616765206f60008201527f6620746865206e65676f63696174696f6e210000000000000000000000000000602082015250565b7f53656e6465722073686f756c6420706179206174206c6561737420746865206d60008201527f696e696d616c20707269636520666f72207468652070726f6475637473206f7260208201527f2073657276696365732e00000000000000000000000000000000000000000000604082015250565b7f457363726f77204167656e7420666565206f662031204574686572206d75737460008201527f20626520636f7665726564210000000000000000000000000000000000000000602082015250565b7f596f752063616e6e6f7420636c61696d207468652066756e647320616674657260008201527f207468652074696d656c6f636b20706572696f64000000000000000000000000602082015250565b7f596f752063616e6e6f742064656e792064656c6976657279206265666f72652060008201527f7468652074696d656c6f636b20706572696f6400000000000000000000000000602082015250565b7f416363657373436f6e74726f6c3a206163636f756e7420000000000000000000600082015250565b7f43616e206f6e6c7920636c61696d207768656e20696e204445504f534954454460008201527f2073746174757321000000000000000000000000000000000000000000000000602082015250565b7f43616e206f6e6c792064656e792064656c69766572792061667465722073656c60008201527f6c65722068617320636c61696d656420666f72207061796d656e740000000000602082015250565b7f206973206d697373696e6720726f6c6520000000000000000000000000000000600082015250565b7f416363657373436f6e74726f6c3a2063616e206f6e6c792072656e6f756e636560008201527f20726f6c657320666f722073656c660000000000000000000000000000000000602082015250565b6005811061239d5761239c611fe4565b5b50565b6123a981611ea3565b81146123b457600080fd5b50565b6123c081611ed3565b81146123cb57600080fd5b50565b6123d781611edd565b81146123e257600080fd5b5056fea2646970667358221220a44d2d612667ac25d24c5e2997c226d6342379142723233b42437b8ac3efb4c764736f6c63430008040033",
  "linkReferences": {},
  "deployedLinkReferences": {}
}