{
  "_format": "hh-sol-artifact-1",
  "contractName": "Escrow",
  "sourceName": "contracts/Escrow.sol",
  "abi": [
    {
      "inputs": [
        {
          "internalType": "address payable",
          "name": "_sender_address",
          "type": "address"
        },
        {
          "internalType": "address payable",
          "name": "_receiver_address",
          "type": "address"
        },
        {
          "internalType": "uint32",
          "name": "_price",
          "type": "uint32"
        },
        {
          "internalType": "uint256",
          "name": "_lockTime",
          "type": "uint256"
        }
      ],
      "stateMutability": "nonpayable",
      "type": "constructor"
    },
    {
      "anonymous": false,
      "inputs": [
        {
          "indexed": false,
          "internalType": "uint256",
          "name": "when",
          "type": "uint256"
        },
        {
          "indexed": false,
          "internalType": "uint256",
          "name": "till",
          "type": "uint256"
        }
      ],
      "name": "Constrcuted",
      "type": "event"
    },
    {
      "anonymous": false,
      "inputs": [
        {
          "indexed": true,
          "internalType": "bytes32",
          "name": "role",
          "type": "bytes32"
        },
        {
          "indexed": true,
          "internalType": "bytes32",
          "name": "previousAdminRole",
          "type": "bytes32"
        },
        {
          "indexed": true,
          "internalType": "bytes32",
          "name": "newAdminRole",
          "type": "bytes32"
        }
      ],
      "name": "RoleAdminChanged",
      "type": "event"
    },
    {
      "anonymous": false,
      "inputs": [
        {
          "indexed": true,
          "internalType": "bytes32",
          "name": "role",
          "type": "bytes32"
        },
        {
          "indexed": true,
          "internalType": "address",
          "name": "account",
          "type": "address"
        },
        {
          "indexed": true,
          "internalType": "address",
          "name": "sender",
          "type": "address"
        }
      ],
      "name": "RoleGranted",
      "type": "event"
    },
    {
      "anonymous": false,
      "inputs": [
        {
          "indexed": true,
          "internalType": "bytes32",
          "name": "role",
          "type": "bytes32"
        },
        {
          "indexed": true,
          "internalType": "address",
          "name": "account",
          "type": "address"
        },
        {
          "indexed": true,
          "internalType": "address",
          "name": "sender",
          "type": "address"
        }
      ],
      "name": "RoleRevoked",
      "type": "event"
    },
    {
      "inputs": [],
      "name": "AGENT_ROLE",
      "outputs": [
        {
          "internalType": "bytes32",
          "name": "",
          "type": "bytes32"
        }
      ],
      "stateMutability": "view",
      "type": "function"
    },
    {
      "inputs": [],
      "name": "AgentTransfer",
      "outputs": [],
      "stateMutability": "nonpayable",
      "type": "function"
    },
    {
      "inputs": [],
      "name": "ClaimPayment",
      "outputs": [],
      "stateMutability": "nonpayable",
      "type": "function"
    },
    {
      "inputs": [],
      "name": "ConfirmDeliver",
      "outputs": [],
      "stateMutability": "payable",
      "type": "function"
    },
    {
      "inputs": [],
      "name": "DEFAULT_ADMIN_ROLE",
      "outputs": [
        {
          "internalType": "bytes32",
          "name": "",
          "type": "bytes32"
        }
      ],
      "stateMutability": "view",
      "type": "function"
    },
    {
      "inputs": [],
      "name": "RECEIVER_ROLE",
      "outputs": [
        {
          "internalType": "bytes32",
          "name": "",
          "type": "bytes32"
        }
      ],
      "stateMutability": "view",
      "type": "function"
    },
    {
      "inputs": [],
      "name": "SENDER_ROLE",
      "outputs": [
        {
          "internalType": "bytes32",
          "name": "",
          "type": "bytes32"
        }
      ],
      "stateMutability": "view",
      "type": "function"
    },
    {
      "inputs": [],
      "name": "SendPayment",
      "outputs": [],
      "stateMutability": "payable",
      "type": "function"
    },
    {
      "inputs": [],
      "name": "agent",
      "outputs": [
        {
          "internalType": "address payable",
          "name": "",
          "type": "address"
        }
      ],
      "stateMutability": "view",
      "type": "function"
    },
    {
      "inputs": [],
      "name": "balance",
      "outputs": [
        {
          "internalType": "uint256",
          "name": "",
          "type": "uint256"
        }
      ],
      "stateMutability": "view",
      "type": "function"
    },
    {
      "inputs": [],
      "name": "fee",
      "outputs": [
        {
          "internalType": "uint256",
          "name": "",
          "type": "uint256"
        }
      ],
      "stateMutability": "view",
      "type": "function"
    },
    {
      "inputs": [
        {
          "internalType": "bytes32",
          "name": "role",
          "type": "bytes32"
        }
      ],
      "name": "getRoleAdmin",
      "outputs": [
        {
          "internalType": "bytes32",
          "name": "",
          "type": "bytes32"
        }
      ],
      "stateMutability": "view",
      "type": "function"
    },
    {
      "inputs": [
        {
          "internalType": "bytes32",
          "name": "role",
          "type": "bytes32"
        },
        {
          "internalType": "address",
          "name": "account",
          "type": "address"
        }
      ],
      "name": "grantRole",
      "outputs": [],
      "stateMutability": "nonpayable",
      "type": "function"
    },
    {
      "inputs": [
        {
          "internalType": "bytes32",
          "name": "role",
          "type": "bytes32"
        },
        {
          "internalType": "address",
          "name": "account",
          "type": "address"
        }
      ],
      "name": "hasRole",
      "outputs": [
        {
          "internalType": "bool",
          "name": "",
          "type": "bool"
        }
      ],
      "stateMutability": "view",
      "type": "function"
    },
    {
      "inputs": [],
      "name": "lockTime",
      "outputs": [
        {
          "internalType": "uint256",
          "name": "",
          "type": "uint256"
        }
      ],
      "stateMutability": "view",
      "type": "function"
    },
    {
      "inputs": [],
      "name": "price",
      "outputs": [
        {
          "internalType": "uint256",
          "name": "",
          "type": "uint256"
        }
      ],
      "stateMutability": "view",
      "type": "function"
    },
    {
      "inputs": [],
      "name": "receiver",
      "outputs": [
        {
          "internalType": "address payable",
          "name": "",
          "type": "address"
        }
      ],
      "stateMutability": "view",
      "type": "function"
    },
    {
      "inputs": [
        {
          "internalType": "bytes32",
          "name": "role",
          "type": "bytes32"
        },
        {
          "internalType": "address",
          "name": "account",
          "type": "address"
        }
      ],
      "name": "renounceRole",
      "outputs": [],
      "stateMutability": "nonpayable",
      "type": "function"
    },
    {
      "inputs": [
        {
          "internalType": "bytes32",
          "name": "role",
          "type": "bytes32"
        },
        {
          "internalType": "address",
          "name": "account",
          "type": "address"
        }
      ],
      "name": "revokeRole",
      "outputs": [],
      "stateMutability": "nonpayable",
      "type": "function"
    },
    {
      "inputs": [],
      "name": "sender",
      "outputs": [
        {
          "internalType": "address payable",
          "name": "",
          "type": "address"
        }
      ],
      "stateMutability": "view",
      "type": "function"
    },
    {
      "inputs": [],
      "name": "start",
      "outputs": [
        {
          "internalType": "uint256",
          "name": "",
          "type": "uint256"
        }
      ],
      "stateMutability": "view",
      "type": "function"
    },
    {
      "inputs": [],
      "name": "status",
      "outputs": [
        {
          "internalType": "enum Escrow.Status",
          "name": "",
          "type": "uint8"
        }
      ],
      "stateMutability": "view",
      "type": "function"
    },
    {
      "inputs": [
        {
          "internalType": "bytes4",
          "name": "interfaceId",
          "type": "bytes4"
        }
      ],
      "name": "supportsInterface",
      "outputs": [
        {
          "internalType": "bool",
          "name": "",
          "type": "bool"
        }
      ],
      "stateMutability": "view",
      "type": "function"
    },
    {
      "inputs": [],
      "name": "vault",
      "outputs": [
        {
          "internalType": "address",
          "name": "",
          "type": "address"
        }
      ],
      "stateMutability": "view",
      "type": "function"
    },
    {
      "stateMutability": "payable",
      "type": "receive"
    }
  ],
  "bytecode": "0x60806040523480156200001157600080fd5b5060405162002505380380620025058339818101604052810190620000379190620004b9565b6000600760006101000a81548160ff0219169083600481111562000084577f4e487b7100000000000000000000000000000000000000000000000000000000600052602160045260246000fd5b021790555030600160006101000a81548173ffffffffffffffffffffffffffffffffffffffff021916908373ffffffffffffffffffffffffffffffffffffffff16021790555033600260006101000a81548173ffffffffffffffffffffffffffffffffffffffff021916908373ffffffffffffffffffffffffffffffffffffffff16021790555083600360006101000a81548173ffffffffffffffffffffffffffffffffffffffff021916908373ffffffffffffffffffffffffffffffffffffffff1602179055508060088190555082600460006101000a81548173ffffffffffffffffffffffffffffffffffffffff021916908373ffffffffffffffffffffffffffffffffffffffff1602179055508163ffffffff16600581905550600160068190555042600a8190555060006009819055506200020c7fcab5a0bfe0b79d2c4b1c2e02599fa044d115b7511f9659307cb4276950967709600260009054906101000a900473ffffffffffffffffffffffffffffffffffffffff16620002fb60201b60201c565b620002607f76d12de99ad2ca162840505be9b657c2e7a650cc3ee0284048f3f9def3c1adf2600360009054906101000a900473ffffffffffffffffffffffffffffffffffffffff16620002fb60201b60201c565b620002b47f7a97506be97703960d71e3a118f1850a50b01da6957110e8293eacb08d8c6060600460009054906101000a900473ffffffffffffffffffffffffffffffffffffffff16620002fb60201b60201c565b7f96a1e8322aa29a97b79ed92d729bd7422c8cba6ee78fca557d4fd652718c2ec542600854604051620002e992919062000536565b60405180910390a150505050620005ff565b6200030d82826200031160201b60201c565b5050565b6200032382826200040260201b60201c565b620003fe57600160008084815260200190815260200160002060000160008373ffffffffffffffffffffffffffffffffffffffff1673ffffffffffffffffffffffffffffffffffffffff16815260200190815260200160002060006101000a81548160ff021916908315150217905550620003a36200046c60201b60201c565b73ffffffffffffffffffffffffffffffffffffffff168173ffffffffffffffffffffffffffffffffffffffff16837f2f8788117e7eff1d82e926ec794901d17c78024a50270940304540a733656f0d60405160405180910390a45b5050565b600080600084815260200190815260200160002060000160008373ffffffffffffffffffffffffffffffffffffffff1673ffffffffffffffffffffffffffffffffffffffff16815260200190815260200160002060009054906101000a900460ff16905092915050565b600033905090565b6000815190506200048581620005b1565b92915050565b6000815190506200049c81620005cb565b92915050565b600081519050620004b381620005e5565b92915050565b60008060008060808587031215620004d057600080fd5b6000620004e08782880162000474565b9450506020620004f38782880162000474565b93505060406200050687828801620004a2565b925050606062000519878288016200048b565b91505092959194509250565b620005308162000597565b82525050565b60006040820190506200054d600083018562000525565b6200055c602083018462000525565b9392505050565b6000620005708262000577565b9050919050565b600073ffffffffffffffffffffffffffffffffffffffff82169050919050565b6000819050919050565b600063ffffffff82169050919050565b620005bc8162000563565b8114620005c857600080fd5b50565b620005d68162000597565b8114620005e257600080fd5b50565b620005f081620005a1565b8114620005fc57600080fd5b50565b611ef6806200060f6000396000f3fe60806040526004361061014f5760003560e01c8063b6103937116100b6578063ddca3f431161006f578063ddca3f431461045c578063e35ffcab14610487578063f118682b1461049e578063f5ff5c76146104a8578063f7260d3e146104d3578063fbfa77cf146104fe57610156565b8063b610393714610391578063b69ef8a8146103a8578063be9a6555146103d3578063c42ef38c146103fe578063d547741f14610429578063daa2fd201461045257610156565b806336568abe1161010857806336568abe1461027f57806367e404ce146102a857806391d14854146102d35780639e17403b14610310578063a035b1fe1461033b578063a217fddf1461036657610156565b806301ffc9a71461015b5780630d66808714610198578063200d2ed2146101c357806322459e18146101ee578063248a9ca3146102195780632f2ff15d1461025657610156565b3661015657005b600080fd5b34801561016757600080fd5b50610182600480360381019061017d9190611580565b610529565b60405161018f9190611818565b60405180910390f35b3480156101a457600080fd5b506101ad6105a3565b6040516101ba919061196b565b60405180910390f35b3480156101cf57600080fd5b506101d86105a9565b6040516101e5919061184e565b60405180910390f35b3480156101fa57600080fd5b506102036105bc565b6040516102109190611833565b60405180910390f35b34801561022557600080fd5b50610240600480360381019061023b919061151b565b6105e0565b60405161024d9190611833565b60405180910390f35b34801561026257600080fd5b5061027d60048036038101906102789190611544565b6105ff565b005b34801561028b57600080fd5b506102a660048036038101906102a19190611544565b610628565b005b3480156102b457600080fd5b506102bd6106ab565b6040516102ca91906117fd565b60405180910390f35b3480156102df57600080fd5b506102fa60048036038101906102f59190611544565b6106d1565b6040516103079190611818565b60405180910390f35b34801561031c57600080fd5b5061032561073b565b6040516103329190611833565b60405180910390f35b34801561034757600080fd5b5061035061075f565b60405161035d919061196b565b60405180910390f35b34801561037257600080fd5b5061037b610765565b6040516103889190611833565b60405180910390f35b34801561039d57600080fd5b506103a661076c565b005b3480156103b457600080fd5b506103bd6108d3565b6040516103ca919061196b565b60405180910390f35b3480156103df57600080fd5b506103e86108d9565b6040516103f5919061196b565b60405180910390f35b34801561040a57600080fd5b506104136108df565b6040516104209190611833565b60405180910390f35b34801561043557600080fd5b50610450600480360381019061044b9190611544565b610903565b005b61045a61092c565b005b34801561046857600080fd5b50610471610bb9565b60405161047e919061196b565b60405180910390f35b34801561049357600080fd5b5061049c610bbf565b005b6104a6610d58565b005b3480156104b457600080fd5b506104bd610ea0565b6040516104ca91906117fd565b60405180910390f35b3480156104df57600080fd5b506104e8610ec6565b6040516104f591906117fd565b60405180910390f35b34801561050a57600080fd5b50610513610eec565b60405161052091906117e2565b60405180910390f35b60007f7965db0b000000000000000000000000000000000000000000000000000000007bffffffffffffffffffffffffffffffffffffffffffffffffffffffff1916827bffffffffffffffffffffffffffffffffffffffffffffffffffffffff1916148061059c575061059b82610f12565b5b9050919050565b60085481565b600760009054906101000a900460ff1681565b7fcab5a0bfe0b79d2c4b1c2e02599fa044d115b7511f9659307cb427695096770981565b6000806000838152602001908152602001600020600101549050919050565b610608826105e0565b61061981610614610f7c565b610f84565b6106238383611021565b505050565b610630610f7c565b73ffffffffffffffffffffffffffffffffffffffff168173ffffffffffffffffffffffffffffffffffffffff161461069d576040517f08c379a00000000000000000000000000000000000000000000000000000000081526004016106949061194b565b60405180910390fd5b6106a78282611101565b5050565b600360009054906101000a900473ffffffffffffffffffffffffffffffffffffffff1681565b600080600084815260200190815260200160002060000160008373ffffffffffffffffffffffffffffffffffffffff1673ffffffffffffffffffffffffffffffffffffffff16815260200190815260200160002060009054906101000a900460ff16905092915050565b7f7a97506be97703960d71e3a118f1850a50b01da6957110e8293eacb08d8c606081565b60055481565b6000801b81565b7fcab5a0bfe0b79d2c4b1c2e02599fa044d115b7511f9659307cb427695096770961079e81610799610f7c565b610f84565b6004808111156107d7577f4e487b7100000000000000000000000000000000000000000000000000000000600052602160045260246000fd5b600760009054906101000a900460ff16600481111561081f577f4e487b7100000000000000000000000000000000000000000000000000000000600052602160045260246000fd5b14156108d057600460009054906101000a900473ffffffffffffffffffffffffffffffffffffffff1673ffffffffffffffffffffffffffffffffffffffff166108fc600160009054906101000a900473ffffffffffffffffffffffffffffffffffffffff1673ffffffffffffffffffffffffffffffffffffffff16319081150290604051600060405180830381858888f193505050501580156108c6573d6000803e3d6000fd5b5060006009819055505b50565b60095481565b600a5481565b7f76d12de99ad2ca162840505be9b657c2e7a650cc3ee0284048f3f9def3c1adf281565b61090c826105e0565b61091d81610918610f7c565b610f84565b6109278383611101565b505050565b7f76d12de99ad2ca162840505be9b657c2e7a650cc3ee0284048f3f9def3c1adf261095e81610959610f7c565b610f84565b6006543410156109a3576040517f08c379a000000000000000000000000000000000000000000000000000000000815260040161099a906118eb565b60405180910390fd5b600060048111156109dd577f4e487b7100000000000000000000000000000000000000000000000000000000600052602160045260246000fd5b600760009054906101000a900460ff166004811115610a25577f4e487b7100000000000000000000000000000000000000000000000000000000600052602160045260246000fd5b14610a65576040517f08c379a0000000000000000000000000000000000000000000000000000000008152600401610a5c906118cb565b60405180910390fd5b600260009054906101000a900473ffffffffffffffffffffffffffffffffffffffff1673ffffffffffffffffffffffffffffffffffffffff166108fc6006549081150290604051600060405180830381858888f19350505050158015610acf573d6000803e3d6000fd5b50600060065434610ae09190611a5d565b9050600160009054906101000a900473ffffffffffffffffffffffffffffffffffffffff1673ffffffffffffffffffffffffffffffffffffffff166108fc829081150290604051600060405180830381858888f19350505050158015610b4a573d6000803e3d6000fd5b508060096000828254610b5d91906119ad565b925050819055506001600760006101000a81548160ff02191690836004811115610bb0577f4e487b7100000000000000000000000000000000000000000000000000000000600052602160045260246000fd5b02179055505050565b60065481565b7f7a97506be97703960d71e3a118f1850a50b01da6957110e8293eacb08d8c6060610bf181610bec610f7c565b610f84565b600854600a54610c0191906119ad565b4210610c42576040517f08c379a0000000000000000000000000000000000000000000000000000000008152600401610c399061190b565b60405180910390fd5b60016004811115610c7c577f4e487b7100000000000000000000000000000000000000000000000000000000600052602160045260246000fd5b600760009054906101000a900460ff166004811115610cc4577f4e487b7100000000000000000000000000000000000000000000000000000000600052602160045260246000fd5b14610d04576040517f08c379a0000000000000000000000000000000000000000000000000000000008152600401610cfb9061192b565b60405180910390fd5b6002600760006101000a81548160ff02191690836004811115610d50577f4e487b7100000000000000000000000000000000000000000000000000000000600052602160045260246000fd5b021790555050565b7f76d12de99ad2ca162840505be9b657c2e7a650cc3ee0284048f3f9def3c1adf2610d8a81610d85610f7c565b610f84565b60026004811115610dc4577f4e487b7100000000000000000000000000000000000000000000000000000000600052602160045260246000fd5b600760009054906101000a900460ff166004811115610e0c577f4e487b7100000000000000000000000000000000000000000000000000000000600052602160045260246000fd5b14610e4c576040517f08c379a0000000000000000000000000000000000000000000000000000000008152600401610e43906118ab565b60405180910390fd5b6004600760006101000a81548160ff02191690836004811115610e98577f4e487b7100000000000000000000000000000000000000000000000000000000600052602160045260246000fd5b021790555050565b600260009054906101000a900473ffffffffffffffffffffffffffffffffffffffff1681565b600460009054906101000a900473ffffffffffffffffffffffffffffffffffffffff1681565b600160009054906101000a900473ffffffffffffffffffffffffffffffffffffffff1681565b60007f01ffc9a7000000000000000000000000000000000000000000000000000000007bffffffffffffffffffffffffffffffffffffffffffffffffffffffff1916827bffffffffffffffffffffffffffffffffffffffffffffffffffffffff1916149050919050565b600033905090565b610f8e82826106d1565b61101d57610fb38173ffffffffffffffffffffffffffffffffffffffff1660146111e2565b610fc18360001c60206111e2565b604051602001610fd29291906117a8565b6040516020818303038152906040526040517f08c379a00000000000000000000000000000000000000000000000000000000081526004016110149190611869565b60405180910390fd5b5050565b61102b82826106d1565b6110fd57600160008084815260200190815260200160002060000160008373ffffffffffffffffffffffffffffffffffffffff1673ffffffffffffffffffffffffffffffffffffffff16815260200190815260200160002060006101000a81548160ff0219169083151502179055506110a2610f7c565b73ffffffffffffffffffffffffffffffffffffffff168173ffffffffffffffffffffffffffffffffffffffff16837f2f8788117e7eff1d82e926ec794901d17c78024a50270940304540a733656f0d60405160405180910390a45b5050565b61110b82826106d1565b156111de57600080600084815260200190815260200160002060000160008373ffffffffffffffffffffffffffffffffffffffff1673ffffffffffffffffffffffffffffffffffffffff16815260200190815260200160002060006101000a81548160ff021916908315150217905550611183610f7c565b73ffffffffffffffffffffffffffffffffffffffff168173ffffffffffffffffffffffffffffffffffffffff16837ff6391f5c32d9c69d2a47ea670b442974b53935d1edc7fd64eb21e047a839171b60405160405180910390a45b5050565b6060600060028360026111f59190611a03565b6111ff91906119ad565b67ffffffffffffffff81111561123e577f4e487b7100000000000000000000000000000000000000000000000000000000600052604160045260246000fd5b6040519080825280601f01601f1916602001820160405280156112705781602001600182028036833780820191505090505b5090507f3000000000000000000000000000000000000000000000000000000000000000816000815181106112ce577f4e487b7100000000000000000000000000000000000000000000000000000000600052603260045260246000fd5b60200101907effffffffffffffffffffffffffffffffffffffffffffffffffffffffffffff1916908160001a9053507f780000000000000000000000000000000000000000000000000000000000000081600181518110611358577f4e487b7100000000000000000000000000000000000000000000000000000000600052603260045260246000fd5b60200101907effffffffffffffffffffffffffffffffffffffffffffffffffffffffffffff1916908160001a905350600060018460026113989190611a03565b6113a291906119ad565b90505b600181111561148e577f3031323334353637383961626364656600000000000000000000000000000000600f86166010811061140a577f4e487b7100000000000000000000000000000000000000000000000000000000600052603260045260246000fd5b1a60f81b828281518110611447577f4e487b7100000000000000000000000000000000000000000000000000000000600052603260045260246000fd5b60200101907effffffffffffffffffffffffffffffffffffffffffffffffffffffffffffff1916908160001a905350600485901c94508061148790611b79565b90506113a5565b50600084146114d2576040517f08c379a00000000000000000000000000000000000000000000000000000000081526004016114c99061188b565b60405180910390fd5b8091505092915050565b6000813590506114eb81611e7b565b92915050565b60008135905061150081611e92565b92915050565b60008135905061151581611ea9565b92915050565b60006020828403121561152d57600080fd5b600061153b848285016114f1565b91505092915050565b6000806040838503121561155757600080fd5b6000611565858286016114f1565b9250506020611576858286016114dc565b9150509250929050565b60006020828403121561159257600080fd5b60006115a084828501611506565b91505092915050565b6115b281611aa3565b82525050565b6115c181611a91565b82525050565b6115d081611ab5565b82525050565b6115df81611ac1565b82525050565b6115ee81611b34565b82525050565b60006115ff82611986565b6116098185611991565b9350611619818560208601611b46565b61162281611c01565b840191505092915050565b600061163882611986565b61164281856119a2565b9350611652818560208601611b46565b80840191505092915050565b600061166b602083611991565b915061167682611c12565b602082019050919050565b600061168e603e83611991565b915061169982611c3b565b604082019050919050565b60006116b1603283611991565b91506116bc82611c8a565b604082019050919050565b60006116d4602b83611991565b91506116df82611cd9565b604082019050919050565b60006116f7603483611991565b915061170282611d28565b604082019050919050565b600061171a6017836119a2565b915061172582611d77565b601782019050919050565b600061173d602883611991565b915061174882611da0565b604082019050919050565b60006117606011836119a2565b915061176b82611def565b601182019050919050565b6000611783602f83611991565b915061178e82611e18565b604082019050919050565b6117a281611b2a565b82525050565b60006117b38261170d565b91506117bf828561162d565b91506117ca82611753565b91506117d6828461162d565b91508190509392505050565b60006020820190506117f760008301846115b8565b92915050565b600060208201905061181260008301846115a9565b92915050565b600060208201905061182d60008301846115c7565b92915050565b600060208201905061184860008301846115d6565b92915050565b600060208201905061186360008301846115e5565b92915050565b6000602082019050818103600083015261188381846115f4565b905092915050565b600060208201905081810360008301526118a48161165e565b9050919050565b600060208201905081810360008301526118c481611681565b9050919050565b600060208201905081810360008301526118e4816116a4565b9050919050565b60006020820190508181036000830152611904816116c7565b9050919050565b60006020820190508181036000830152611924816116ea565b9050919050565b6000602082019050818103600083015261194481611730565b9050919050565b6000602082019050818103600083015261196481611776565b9050919050565b60006020820190506119806000830184611799565b92915050565b600081519050919050565b600082825260208201905092915050565b600081905092915050565b60006119b882611b2a565b91506119c383611b2a565b9250827fffffffffffffffffffffffffffffffffffffffffffffffffffffffffffffffff038211156119f8576119f7611ba3565b5b828201905092915050565b6000611a0e82611b2a565b9150611a1983611b2a565b9250817fffffffffffffffffffffffffffffffffffffffffffffffffffffffffffffffff0483118215151615611a5257611a51611ba3565b5b828202905092915050565b6000611a6882611b2a565b9150611a7383611b2a565b925082821015611a8657611a85611ba3565b5b828203905092915050565b6000611a9c82611b0a565b9050919050565b6000611aae82611b0a565b9050919050565b60008115159050919050565b6000819050919050565b60007fffffffff0000000000000000000000000000000000000000000000000000000082169050919050565b6000819050611b0582611e67565b919050565b600073ffffffffffffffffffffffffffffffffffffffff82169050919050565b6000819050919050565b6000611b3f82611af7565b9050919050565b60005b83811015611b64578082015181840152602081019050611b49565b83811115611b73576000848401525b50505050565b6000611b8482611b2a565b91506000821415611b9857611b97611ba3565b5b600182039050919050565b7f4e487b7100000000000000000000000000000000000000000000000000000000600052601160045260246000fd5b7f4e487b7100000000000000000000000000000000000000000000000000000000600052602160045260246000fd5b6000601f19601f8301169050919050565b7f537472696e67733a20686578206c656e67746820696e73756666696369656e74600082015250565b7f43616e206f6e6c7920636f6e6669726d2064656c69766572792061667465722060008201527f73656c6c65722068617320636c61696d656420666f72207061796d656e740000602082015250565b7f546869732073686f756c6420626520746865206669727374207374616765206f60008201527f6620746865206e65676f63696174696f6e210000000000000000000000000000602082015250565b7f457363726f77204167656e7420666565206f6620313030303030206d7573742060008201527f626520636f766572656421000000000000000000000000000000000000000000602082015250565b7f596f752063616e6e6f7420636c61696d207468652066756e647320616674657260008201527f207468652074696d656c6f636b20706572696f64000000000000000000000000602082015250565b7f416363657373436f6e74726f6c3a206163636f756e7420000000000000000000600082015250565b7f43616e206f6e6c7920636c61696d207768656e20696e204445504f534954454460008201527f2073746174757321000000000000000000000000000000000000000000000000602082015250565b7f206973206d697373696e6720726f6c6520000000000000000000000000000000600082015250565b7f416363657373436f6e74726f6c3a2063616e206f6e6c792072656e6f756e636560008201527f20726f6c657320666f722073656c660000000000000000000000000000000000602082015250565b60058110611e7857611e77611bd2565b5b50565b611e8481611a91565b8114611e8f57600080fd5b50565b611e9b81611ac1565b8114611ea657600080fd5b50565b611eb281611acb565b8114611ebd57600080fd5b5056fea2646970667358221220fb499f7341650f545ab49eb03ec575a5296cd7dedfdb9a370e16d1f3199efda664736f6c63430008040033",
  "linkReferences": {},
  "deployedLinkReferences": {}
}